:100000000C94EE000C9416010C9416010C9416013D
:100010000C9416010C9416010C9416010C94160104
:100020000C9416010C9416010C94F9110C9468129E
:100030000C9416010C9416010C9416010C941601E4
:100040000C9416010C9416010C9416010C941601D4
:100050000C9416010C9416010C9416010C94AF111B
:100060000C9416010C94C0140C949A140C94160160
:100070000C9416010C9416010C9416010C941601A4
:100080000C9416010C9416010C9416010C94160194
:100090000C9416010C9416010C9416010C94160184
:1000A0000C9416010C9416010C941601080B000216
:1000B0000202000009040000010202000005240001
:1000C0001001052401010104240206052406000193
:1000D0000705810310004009040100020A00000026
:1000E00007050202400000070583024000000403E8
:1000F000090412010002EF02014041233680000191
:100100000102030141726475696E6F204C4C43001B
:1001100041726475696E6F204C656F6E6172646FB9
:10012000000000000200090F0000030401000C00A1
:1001300000000000000000000000000000000000BF
:100140000D0A4F534320646964206E6F74207374EA
:10015000617274000D0A50533420555342204C698B
:100160006272617279205374617274656400000078
:100170000000250028002B002E00310000000000A8
:10018000240027002A002D00300004040404040386
:100190000405020202020403020202020606060627
:1001A000060604040202020404040802011040804E
:1001B000401020408040800802040180402010024E
:1001C0000110801020404020000102030C0D0E0F92
:1001D0000A0B08090706050410119E1511241FBEFD
:1001E000CFEFDAE0DEBFCDBF11E0A0E0B1E0E4EF99
:1001F000F9E302C005900D92AC3AB107D9F724E0BB
:10020000ACEAB1E001C01D92A431B207E1F710E001
:10021000CEEED0E004C02197FE010E94DD1CCD3E51
:10022000D107C9F70E940B170C94F81C0C9400001E
:100230008CBD9DBD0895CF92DF92EF920F931F93D7
:1002400088539E4FFC01849101E010E020E030E0F3
:1002500004C0000F111F221F331F8A95D2F780910F
:100260008F0390919003A09191036801E22EC094B6
:10027000D094E094C822D922EA22C0928F03D0926F
:100280009003E0929103B0E0AC01BD014023512303
:100290006223732381E0452B462B472B09F480E032
:1002A0001F910F91EF90DF90CF90089590E0FC01A7
:1002B000E755FE4F249186579E4FFC018491882379
:1002C00099F090E0880F991FFC01E458FE4FA5912A
:1002D000B491FC01E259FE4F859194918FB7F89447
:1002E000EC91E22BEC938FBF0895FC018091D30138
:1002F000882311F13FB7F89482E08093E9002091C0
:10030000F200822F90E01816190614F481E090E0B4
:10031000882339F0289844E64093D2014091F100B7
:100320004083222339F02091F200211103C02BE6F3
:100330002093E8003FBF08958FEF9FEF08952FB7F8
:10034000F89483E08093E9009091E800892F80720F
:1003500095FF04C09091F20080E4891B2FBF08959F
:100360008091CA0181110DC082E08093C60184E0B2
:100370008093C7011092C9011092C80181E0809357
:10038000CA0186EC91E008953FB7F8948091C201CC
:100390009091C301A091C401B091C50126B5A89B5D
:1003A00005C02F3F19F00196A11DB11D3FBFBA2F07
:1003B000A92F982F8827BC01CD01620F711D811DC7
:1003C000911D42E0660F771F881F991F4A95D1F74C
:1003D00008958F929F92AF92BF92CF92DF92EF9249
:1003E000FF924B015C010E94C4016B017C010E94E1
:1003F000C4016C197D098E099F09683E734081050F
:100400009105A8F321E0821A9108A108B10888EEAD
:10041000C80E83E0D81EE11CF11C81149104A104D4
:10042000B10429F7FF90EF90DF90CF90BF90AF908D
:100430009F908F9008952FB7F8946091BE017091AE
:10044000BF018091C0019091C1012FBF08954091DB
:10045000AE015091AF012091AC013091AD01421736
:100460005307B4F49091E8009570E1F39091E8009F
:1004700092FD19C08093F1008091AE019091AF017F
:1004800001968F739927892B19F48EEF8093E800DA
:100490008091AE019091AF0101969093AF0180934E
:1004A000AE0181E0089580E00895EF92FF920F93EE
:1004B0001F93CF93DF93F82E192FE62E042F81E0A0
:1004C000860F880F0E94270283E00E942702CF2D0B
:1004D000D12FEC0EFD2EF11CCE15DF05B9F007FF74
:1004E00013C0FE0184910E942702182F80E00E9411
:1004F0002702812321968111EFCFDF91CF911F91A8
:100500000F91FF90EF9008958881EDCF81E0F5CFB6
:10051000DF92EF92FF920F931F93CF93DF93D82E2A
:100520008A01EB017B01E40EF51ECE15DF0559F0C3
:10053000D7FE12C0FE0184910E94270221968111EC
:10054000F4CF0FEF1FEFC801DF91CF911F910F91F3
:10055000FF90EF90DF9008958881EECF0F931F9367
:10056000CF93DF931F92CDB7DEB782E0898342E459
:1005700050E06CEA70E080E80E9488020E94B001BE
:10058000DC0112960D911C910115110589F0D8011D
:10059000ED91FC910280F381E02DBE016F5F7F4FF2
:1005A000C801099597FD04C0F80100851185ECCFBD
:1005B00089810F90DF91CF911F910F910895615024
:1005C00030F02091F100FC0120830196F8CF2898AB
:1005D00084E68093D2010895EF92FF920F931F93C8
:1005E000CF93DF938C017B01D0E0C0E0F701EC0FEB
:1005F000FD1F6491662361F0D801ED91FC9101909B
:10060000F081E02DC8010995892B11F02196EECFDC
:10061000CE01DF91CF911F910F91FF90EF90089540
:10062000AF92BF92CF92DF92EF92FF920F931F9300
:10063000CF93DF936C017B018B01040F151FEB013E
:100640005E01AE18BF08C017D10759F06991D601F5
:10065000ED91FC910190F081E02DC6010995892B67
:1006600079F7C501DF91CF911F910F91FF90EF9026
:10067000DF90CF90BF90AF900895FC01538D448DD3
:10068000252F30E0842F90E0821B930B541710F03D
:10069000CF96089501970895FC01918D828D98174A
:1006A00061F0A28DAE0FBF2FB11D5D968C91928D22
:1006B0009F5F9F73928F90E008958FEF9FEF089553
:1006C000FC01918D828D981731F0828DE80FF11D1C
:1006D000858D90E008958FEF9FEF0895FC01918D37
:1006E000228D892F90E0805C9F4F821B91098F7330
:1006F0009927089585ED91E00E946E0321E0892BF2
:1007000009F420E0822F089580E090E0892B29F001
:100710000E947A0381110C9400000895FC01A48DBD
:10072000A80FB92FB11DA35ABF4F2C91848D90E013
:1007300001968F739927848FA689B7892C93A089F6
:10074000B1898C9182748C93938D848D981306C09B
:100750000288F389E02D80818F7D80830895EF9258
:10076000FF920F931F93CF93DF93EC0181E0888F6B
:100770009B8D8C8D981319C0E889F989808185FF3C
:1007800014C09FB7F894EE89FF896083E889F989DE
:100790008081827480839FBF81E090E0DF91CF9160
:1007A0001F910F91FF90EF900895F62E0B8D10E0A2
:1007B0000F5F1F4F0F731127E02E8C8D8E110CC011
:1007C0000FB607FCFACFE889F989808185FFF5CF5C
:1007D000CE010E948E03F1CFEB8DEC0FFD2FF11DAA
:1007E000E35AFF4FF0829FB7F8940B8FEA89FB8999
:1007F00080818062CFCFCF93DF93EC01888D8823F7
:10080000B9F0AA89BB89E889F9898C9185FD03C073
:10081000808186FD0DC00FB607FCF7CF8C9185FF58
:10082000F2CF808185FFEDCFCE010E948E03E9CF0C
:10083000DF91CF9108958F929F92AF92BF92CF9206
:10084000DF92EF92FF920F931F93CF93DF936C0190
:100850007B018A0180910B01882309F45CC080919F
:10086000D301882309F457C08091B20180FF05C0ED
:100870008091E00082608093E000E801B12C8AEF73
:10088000A82E93E0892E2AE3922E209711F4BB2004
:10089000D9F10E949F0181110AC0AA94AA20D9F11E
:1008A00061E070E080E090E00E94E901EECF8C17FB
:1008B0001D0611F00CF08C2F9FB7F8948092E90080
:1008C0002091E80025FD02C09FBFDFCF282F30E038
:1008D000C21BD30BF701815020F041914093F100EE
:1008E000FACFE20EF31EBB2021F09092E800B12C6B
:1008F000EBCF8091E80085FDE7CF9092E800BB2424
:10090000B394209709F3F3CF5D9884E68093B10107
:10091000101611063CF081E090E0F601938382838B
:1009200010E000E0C801DF91CF911F910F91FF907F
:10093000EF90DF90CF90BF90AF909F908F900895F1
:10094000CF93DF931F92CDB7DEB76983DC01ED91C2
:10095000FC910280F381E02D41E050E0BE016F5F29
:100960007F4F09950F90DF91CF91089583E0809399
:10097000E9008091F200882319F08AE38093E8006F
:1009800008950E949F0190E00895CF93DF931F92F6
:10099000CDB7DEB7FC018485958597FD08C02FEFA4
:1009A0003FEF358724870F90DF91CF910895CE01D7
:1009B00001960E947501019719F4898190E0F3CFA7
:1009C0008FEF9FEFF0CF0F931F93CF93DF931F9283
:1009D000CDB7DEB78C01FC018485958597FF0BC0F0
:1009E000CE0101960E947501019771F4898190E012
:1009F000F80195878487F801848595850F90DF91AC
:100A0000CF911F910F9108958FEF9FEFF1CFFC01D0
:100A10008485958597FD0BC09FB7F89482E08093FD
:100A2000E9008091F2009FBF90E0019608959FB782
:100A3000F89482E08093E9008091F2009FBF90E0FB
:100A400008950F931F93CF93DF93FC018B01EA016D
:100A500080819181892B31F19281992349F12881FB
:100A60003981232BF9F0D8012D913C91D9014C917A
:100A70008381682F691B770B80819181860F971F77
:100A8000DC014C9382818150828388819981019716
:100A900099838883D8018D919C91119701968D93AC
:100AA0009C93DACF80E0DF91CF911F910F91089551
:100AB0008381828381E0F7CF3F924F925F926F9262
:100AC0007F928F929F92AF92BF92CF92DF92EF92DE
:100AD000FF920F931F93CF93DF9300D000D0CDB739
:100AE000DEB76C017A8369835C834B8384E0482E94
:100AF000360182E1680E711C93E0392E5601A7E0A1
:100B0000AA0EB11C12E0552453944601B0E18B0E9D
:100B1000911C29813A812115310509F4CBC0F601D8
:100B200080A18230F1F0A8F5882309F457C0813004
:100B300091F7AE014F5F5F4FBE016D5F7F4FC50103
:100B40000E942105882309F4B5C0D6011596ED91C0
:100B5000FC911697808191968C93919781819296C2
:100B60008C93F6017682658230A2D60192968C91A2
:100B70009297843011F493961C92F60181A18250D1
:100B8000848325813681308727838287818740A2AD
:100B900005C0833051F3843009F0BDCFD601929661
:100BA0008C919297843019F1853009F44CC08230D1
:100BB00009F073C0AE014F5F5F4FBE016D5F7F4FA5
:100BC000C5010E942105882309F474C0F6018589B6
:100BD00084A3F6019682858210A29BCF148385811F
:100BE0009681908787831287118750A2A2CFAE018A
:100BF0004F5F5F4FBE016D5F7F4FC5010E942105B2
:100C0000882309F457C0D60155968C9155978330A7
:100C100001F798968C9198978111DBCF93965C920F
:100C2000939752968C91529796968C93969753964B
:100C30008C91539797968C93979757968C9157973B
:100C400095968C93C6CFAE014F5F5F4FBE016D5F2F
:100C50007F4FC5010E942105882361F1F60183A120
:100C6000882309F4B6CF82819381009709F4B1CF2C
:100C7000DC01ED91FC910190F081E02D7401D60131
:100C800095960C91959797962C91979796964C914F
:100C9000969794966C9109959CCFF601858588234B
:100CA000F9F0813041F1D6011E968D919C91892BEE
:100CB00009F48FCF0F900F900F900F90DF91CF918D
:100CC0001F910F91FF90EF90DF90CF90BF90AF906A
:100CD0009F908F907F906F905F904F903F9008957E
:100CE00091968C9191978250990B1F969C938E931D
:100CF0001E971D965C9229813A818B819C81782F69
:100D0000692FF601468557854115510581F00196F9
:100D10002115310539F04150510957874687215037
:100D20003109EDCF7B836C831A821982BCCF9C83FF
:100D30008B833A8329831586B6CFCF93DF93EC015B
:100D40008C819D81DC01ED91FC910480F581E02D89
:100D50006E81099581E08E8F1E821F8E18A219A2C6
:100D60001AA21CA280E0DF91CF910895FC01DC0162
:100D7000AA57BF4F8C918823A1F08781681741F053
:100D8000828521E030E0681729F090E080E0089546
:100D900030E020E0C901880F991F820F931FE80FF0
:100DA000F91F808591850895FC018781811104C018
:100DB00080859185892B59F08285811106C08385B4
:100DC000948521E030E0892B21F080E0089530E027
:100DD00020E0C901880F991F820F931FE80FF91FA8
:100DE00067835187408781E00895089580E00895E2
:100DF000DF92EF92FF920F931F93CF93DF93EC015B
:100E000085E0E62EF12CFE01869FE00DF11D1124F8
:100E1000908596FF24C0192F177001E085E0D82E29
:100E20008FEF800F8F3008F001E0602F70E0062F09
:100E3000D69EF001D79EF00D1124EC0FFD1F80858A
:100E40008695869586958770181701F16F5F7F4F9D
:100E5000603168F38D81811302C011501D8385E0DC
:100E60008E9DF0018F9DF00D1124EC0FFD1F10865B
:100E700081E0818712862296D783C683DF91CF9146
:100E80001F910F91FF90EF90DF900895CE010E9487
:100E9000F806C6CFFC0120812EBD9B0121503109EF
:100EA00041F051810DB407FEFDCF4EB55EBD4193BB
:100EB000F5CF61507109860F971F0DB407FEFDCF66
:100EC0002EB5FC0120830895FC0121E0613499F4E2
:100ED0009C01255B3F4F61E0AC014E5F5F4F158683
:100EE000668717865487438735962E173F07B9F7CD
:100EF000FC01158208953585631729F02F5F35961B
:100F00002031C9F70895622F0C94F806CF93DF9330
:100F1000FC0167FD12C0283080F4442319F085815C
:100F2000873059F0EF01A1E0B0E08D85882349F1C9
:100F300011962596A031B105C1F780E018C085E073
:100F40008A9FE0018B9FD00D1124CE0FDF1F442319
:100F500089F081E4888785818F5F858325E02A9FDA
:100F6000C0012B9F900D1124E80FF91F8085DF91A0
:100F7000CF91089581E08887F1CF2770687B622B3D
:100F80000FC06623E1F26770660F660F660F442399
:100F9000A1F3606485818F5F85838770687F682B8C
:100FA00025E02A9FC0012B9F900D1124E80FF91F07
:100FB0006087862FDCCFFC0121E0611102C006961C
:100FC00008953585631739F02F5F35962031C9F7BD
:100FD00090E080E00895069635E0239F800D911DF6
:100FE0001124089580E00895FC018FE782838383B4
:100FF00084838583168217821086DF01DE961D9218
:101000001D921C9212971186128684A1806884A377
:1010100080A5806880A785A5806885A781A980684C
:1010200081AB86A9806886AB82AD806882AF88E09C
:10103000868386AF13968C91807F8C931B961C922F
:1010400017971C9211971C9214961C9211971C9240
:1010500011971C9214961C9211971C92E55BFF4FFE
:10106000108208952E9808952E9A08956C34754034
:1010700061F4443C554059F0FC01E957FF4F81E0D1
:10108000208131812C3C394019F080E0089581E0C5
:101090000895CF93DF93FC01E757FF4F2081318103
:1010A0002C343540C1F4329720813181243C45E015
:1010B000340719F02C3C394071F4EC0185579F4FEF
:1010C0000E94F407FE01E852FF4F0190F081E02DED
:1010D000309729F0099580E0DF91CF910895FE01C6
:1010E000EF52FF4F10823196108231968FEF80833E
:1010F000CA52DF4F81E08883EECFFC0184A10895BE
:10110000FC018681089581E0089580E008950895A6
:1011100080E0089508950F931F93CF93DF93D82F06
:10112000C62F8A0180E591E00E9418010E943208D2
:10113000D260DEBDF8018C2F882339F00DB407FE94
:10114000FDCF91919EBD8150F7CFC00FD12FD11D02
:101150000DB407FEFDCF0E943408CE01DF91CF9180
:101160001F910F9108950F931F93CF93DF9300D09A
:10117000CDB7DEB7182F062F80E591E00E94180149
:101180000E943208126019830A8362E070E0CE0187
:1011900001960E944A070E9434080F900F90DF9139
:1011A000CF911F910F9108958EBD00000DB407FEE1
:1011B000FDCF8EB50895CF93C82F80E591E00E94B2
:1011C00018010E9432088C2F0E94D40880E00E94EF
:1011D000D408C82F0E9434088C2FCF9108952F92E5
:1011E0003F924F925F926F927F928F929F92AF92B7
:1011F000BF92CF92DF92EF92FF920F931F93CF9304
:10120000DF9300D000D01F92CDB7DEB79D838C83D3
:101210004B017A016901FC0111818FEF810F80344C
:1012200008F0C4C00E941B022B013C01F8E84F0EDD
:10123000F3E15F1E611C711CEC81FD81828160E421
:1012400080FD60E888EE0E94B308312C812F90E089
:101250009A838983E114F10409F445C009811A8154
:10126000E016F10608F487010B83A601602F80E1E8
:101270000E948B08602F88E30E94B308EC81FD81F7
:101280006081606280EF0E94B30888EC0E94DB08F6
:1012900087FFFBCF60E888EC0E94B30888EF0E94CC
:1012A000DB088F70382EB12CA12C212C3320E9F1D2
:1012B0000E941B02641975098609970997FF35C0BA
:1012C000F6E03F1609F45DC02EE0321699F184E095
:1012D000381209C09FEFA91AB90A8114910471F15B
:1012E000A814B90459F588EF0E94DB08EC81FD8150
:1012F000928185FB90F99283832D0F900F900F9030
:101300000F900F90DF91CF911F910F91FF90EF9071
:10131000DF90CF90BF90AF909F908F907F906F9015
:101320005F904F903F902F900895E01AF10AC00E01
:10133000D11E90CF2394E3E02E16A9F260E088E35B
:101340000E94B308F601608180E10E94B3086B81BE
:1013500088E30E94B308EC81FD816081606280EFC8
:101360000E94B30888EC0E94DB0887FFFBCF60E88F
:1013700088EC0E94B30888EF0E94DB088F70382E3B
:1013800095CF88EF0E94DB0885FB882780F9F1E084
:101390008F27EC81FD81928180FB90F9928360E43C
:1013A00090FD60E888EE0E94B308C8CF8AED382E21
:1013B000A3CFAF92BF92CF92DF92EF92FF920F93A3
:1013C0001F93CF93DF93EC01B62EA42E69010E94E8
:1013D000DB077C0186EDE114F10409F447C0D70175
:1013E000ED91FC91119787ED309709F43FC013966A
:1013F0009C9180E0981731F02081A21629F0339655
:101400008F5FF8CFF0E0E0E0D601ED93FC938BED39
:10141000309761F1228126952695203108F02FE042
:1014200081E090E0A0E0B0E004C0880F991FAA1FFF
:10143000BB1F2A95D2F70197F801918380836B2D0A
:1014400080EE0E94B30888ED0E94DB08D701149655
:101450009C91682F697F992329F0CA58DF4F6881D2
:101460006260682B88ED0E94B30880E0DF91CF9125
:101470001F910F91FF90EF90DF90CF90BF90AF90B2
:1014800008958F929F92AF92BF92CF92DF92EF9288
:10149000FF920F931F93CF93DF93882E962E5A01BE
:1014A0000E941B026B017C0128E8C20E23E1D21EC0
:1014B000E11CF11C10E000E0D0E0C0E098280E94A0
:1014C0001B026C197D098E099F0997FF1EC0692DAB
:1014D00080EF0E94B3080E941B026C197D098E09DF
:1014E0009F0997FF09C088EC0E94DB0887FFF3CFB4
:1014F00060E888EC0E94B30888EF0E94DB08C82FE0
:10150000CF70C43081F0CE30B9F08C2FDF91CF9105
:101510001F910F91FF90EF90DF90CF90BF90AF9011
:101520009F908F9008950F5F1F4FA114B10439F25F
:101530000A151B0521F6E9CFDF5FD33009F0BFCFD5
:10154000E4CF88EF0E94DB08807C8034B1F018F48F
:10155000882301F10895803819F0803CC9F008957E
:1015600088ED0E94DB0881FD0DC069EC88ED0E94CA
:10157000B30882E08093D401089588ED0E94DB08CF
:1015800081FDF3CF6BEC88ED0E94B30883E0F2CFCE
:1015900081E0F0CF61ED88ED0E94B3081092D40194
:1015A00008958F929F92AF92BF920F931F93CF9304
:1015B000DF93CDB7DEB7A1970FB6F894DEBF0FBEAD
:1015C000CDBF19A2423008F44AE08E010F5D1F4FD3
:1015D000842E912CB12CA12CA50194010E94AC1C4D
:1015E000E62FB901CA01EA3044F5E05DD801EE9377
:1015F0008D01232B242B252B79F790E080E0109789
:1016000069F0FD0101900020E9F73197AF014A1B15
:101610005B0BBD0185ED91E00E941003A1960FB612
:10162000F894DEBF0FBECDBFDF91CF911F910F9118
:10163000BF90AF909F908F900895E95CD7CFCF92E5
:10164000DF92FF920F931F93CF93DF93F62E01E06B
:10165000C82FD0E0CC0FDD1FCD50DC4F6E0188814C
:101660009981DC01ED91FC910280F381E02D2F2D19
:1016700040E060E00995182F803E49F561E088EE72
:101680000E94B30866E670E080E090E00E94E90105
:10169000F60180819181DC01ED91FC910190F08156
:1016A000E02D2F2D40E060E00995182F8D3041F599
:1016B0008FEF800F833088F061E088EE0E94B308DE
:1016C00066E670E080E090E00E94E90110C08D3095
:1016D00061F48FEF800F833050F464E670E080E0B7
:1016E00090E00E94E9010F5FBACF882389F2812F31
:1016F000DF91CF911F910F91FF90DF90CF900895D0
:101700008823A9F3D9CF2F923F924F925F926F9285
:101710007F928F929F92AF92BF92CF92DF92EF9281
:10172000FF920F931F93CF93DF937B013A016901DF
:10173000F901A080B180FB013180F9011182108292
:10174000FB01828160E181FD60E288EE0E94B308C6
:101750002A2CA301F701608180E00E94410A582EE3
:10176000F6E08F1310C088EF0E94DB08F70192812A
:101770009D7F84FF9260928360E191FD60E288EE3C
:101780000E94B308E6CF811150C088EC0E94DB08AC
:1017900082FF5FC080E30E94DB08482E8A151B048D
:1017A00011F008F0422CF60180819181E501C81BFF
:1017B000D90BD7FF02C0D0E0C0E0842C912C8C164E
:1017C0009D060CF4E40180E591E00E9418010E945E
:1017D000320888E00E94D408AE0170E060E0C801E1
:1017E0000E94F11C209721F0BE01C8010E944A0707
:1017F0000C0F1D1F0E94340864E088EC0E94B3089F
:10180000F60180819181880E991E91828082431415
:1018100020F08A149B0408F49CCF88EF0E94DB0818
:10182000F701928184FB91F99283852DDF91CF910D
:101830001F910F91FF90EF90DF90CF90BF90AF90EE
:101840009F908F907F906F905F904F903F902F90E0
:10185000089580EF582EE9CF2F923F924F925F92DA
:101860006F927F928F929F92AF92BF92CF92DF92B0
:10187000EF92FF920F931F93CF93DF93CDB7DEB715
:1018800060970FB6F894DEBF0FBECDBF3C01542E5B
:10189000422E302E2E2CEDA0FEA0188A1F861E860A
:1018A0001D868E01035F1F4F9E01215F3F4F40E069
:1018B0000E94D909182F81117EC059824A823B8229
:1018C0002C82DE82CD82B886AF82AE014F5F5F4F41
:1018D00068E080E20E948B084D855E8560E080E1D3
:1018E0000E94410A182F811166C0E114F10409F425
:1018F0004EC0EF85F889828157FE4FC08260828397
:10190000650144244394C114D10409F474C09C8635
:101910008B864D855E856F85788987019E01255F61
:101920003F4FC3010E94830B182F863071F488EF5C
:101930000E94DB08EF85F88985FB882780F98425DC
:10194000928180FB91F99283DECF811134C08FA107
:1019500098A50097A1F06B857C85DC01ED91FC9149
:1019600011970190F081E02DC5018C199D099A878E
:1019700089879E01275F3F4FA701CD0109958B8580
:101980009C85C81AD90A8815990508F0BCCF4D85E1
:101990005E8557FE2AC080EA29C0816082836D85FA
:1019A0007E859701A401CF010E94EF08182F4D8575
:1019B0005E858823D1F0812F60960FB6F894DEBF44
:1019C0000FBECDBFDF91CF911F910F91FF90EF9090
:1019D000DF90CF90BF90AF909F908F907F906F904F
:1019E0005F904F903F902F90089580E860E00E94B4
:1019F000410A182FE0CF1111DECF4D855E85CBCF88
:101A00008F929F92AF92BF92CF92DF92EF920F93FD
:101A1000CF931F921F921F921F92912C812CB12C59
:101A2000A12CD12CC12CE12C062F25E040E060E058
:101A30000E942C0CC82F6CE271E080E090E00E94C4
:101A4000E9010F900F900F900F908C2FCF910F9175
:101A5000EF90DF90CF90BF90AF909F908F900895C0
:101A60008F929F92AF92BF92CF92DF92EF920F939D
:101A70001F921F923F932F934A015A01D12CC12CE0
:101A8000EE24E39400E026E040E80E942C0C0F9046
:101A90000F900F900F900F91EF90DF90CF90BF902D
:101AA000AF909F908F9008952F923F924F925F92A8
:101AB0006F927F928F929F92AF92BF92CF92DF925E
:101AC000EF92FF920F931F93CF93DF93CDB7DEB7C3
:101AD000C258D1090FB6F894DEBF0FBECDBFDC01EE
:101AE00016963C9119ED311114C0B22EA42E162F6A
:101AF0003C01FC01E480F580D701ED91FC9101905F
:101B0000F081E02D60E0C70109952C010097E1F418
:101B100016ED812FCE57DF4F0FB6F894DEBF0FBE04
:101B2000CDBFDF91CF911F910F91FF90EF90DF908C
:101B3000CF90BF90AF909F908F907F906F905F906D
:101B40004F903F902F900895FC01C080D180C11428
:101B5000D10409F4D8C11301F5E62F0E311CDC01C4
:101B600011963C922E921496BC929E0126593F4F9C
:101B700048E050E060E0F301848195810E94300DDF
:101B8000082F8111C4C1AB960FADAB97D201CD9296
:101B9000DC92D701ED91FC910280F381E02D2A2D9A
:101BA00040E0612FC7010995F301868314ED882376
:101BB00009F4AFCFE2969FADE297EA59FF4F9083C9
:101BC000682FD30114968D919C910E94000D182FBF
:101BD000D701ED91FC91D20114961C92882359F003
:101BE0000480F581E02DD30116966C91C70109950B
:101BF000F30116828ECF0190F081E02DD30116966D
:101C00006C91C7010995009709F482CFFC01B48259
:101C100001111CC0E4968EAD9FADE497F301E75728
:101C2000FF4F91838083E6968EAD9FADE697329706
:101C300091838083D30114968D919C91159716966C
:101C40000C9121143104E9F408ED11C0033108F0BE
:101C500002E1402F50E09E0126593F4FF30166817B
:101C6000848195810E94300D082F882399F2D30139
:101C7000ED91FC910480F581E02DC3010995102FB1
:101C800048CF602F0E94DB07FC01892B09F437C184
:101C9000EC968FADEC97C058DF4F8883C058D0408A
:101CA00002833182208281E083832E0191E4490EF8
:101CB000511CD3011296CF57DF4FB983A883C15867
:101CC000D040F2017096EE96FFAFEEAFEE97C0589F
:101CD000DF4FF881C058D0401F1709F494C0E4E1E9
:101CE000F1E0D2011196FC93EE93CF57DF4F88813C
:101CF0009981C158D04013969C938E931297149655
:101D00001C92149719961C9219971A961C921A975E
:101D10001D961C921D971F961C921E921E979096C0
:101D20001C92909791961C92919792961C929297E2
:101D300098961C929897EE96EEADFFADEE9716969C
:101D4000FC93EE9315971896FC93EE9317971C96B9
:101D5000FC93EE931B97D30114960D90BC91A02D8C
:101D6000C258DF4FB983A883CE57D040F301F68025
:101D70001F921F9281E090E08C0F9D1F9F938F9385
:101D800049E0842E912C59E0A52EB12CD12CC12CE8
:101D900062E0E62E012F26E040E86F2DC258DF4FAB
:101DA00088819981CE57D0400E942C0C082F0F902B
:101DB0000F900F900F9081115ACFAB80BC805F9233
:101DC0004F92A1E0B0E0AC0FBD1FBF93AF9330E4E2
:101DD000832E912C012F26E040E86F2DC258DF4F53
:101DE00088819981CE57D0400E942C0C082F0F90EB
:101DF0000F900F900F9081113ACFF301868D8230B2
:101E000010F41F5F64CFD3015E961C915E97123071
:101E100008F47BC016960C911697602F14968D913E
:101E20009C910E94DB07FC01892B21F00283318207
:101E3000208213831F921F921F921F92912C812C3C
:101E4000B12CA12CD12CC12CE12CF301048D29E063
:101E500040E06681848195810E942C0C182F0F90A0
:101E60000F900F900F9081114CC0F12CD3015D9613
:101E70008C915D97F816C0F58F2D90E0FC017F9650
:101E8000EE0FFF1FEE0FFF1FE60DF71D2081211142
:101E900002C0F394EBCFFC01EE0FFF1FEE0FFF1F0C
:101EA000E60DF71DE658FF4F80818770C82ED12CB4
:101EB0001F921F921F921F92912C812CB12CA12C4A
:101EC000E12C00E02AE041E2F30166818481958102
:101ED0000E942C0C082F0F900F900F900F908823CA
:101EE000C1F28530B1F2C3CEED91FC910688F7893D
:101EF000E02DC301099581E0F30184A30ACE06ED2C
:101F0000B6CE082FB4CE17ED04CE11ED02CEF201FD
:101F1000D182C082ACCE2F923F924F925F926F924D
:101F20007F928F929F92AF92BF92CF92DF92EF9269
:101F3000FF920F931F93CF93DF93CDB7DEB7C754B4
:101F4000D1090FB6F894DEBF0FBECDBFDC01949669
:101F5000BC912896BFAF2897B1111CC0512C852D7C
:101F6000C95BDF4F0FB6F894DEBF0FBECDBFDF9168
:101F7000CF911F910F91FF90EF90DF90CF90BF9086
:101F8000AF909F908F907F906F905F904F903F9019
:101F90002F9008957C010E941B02F701878C90A06E
:101FA000A1A0B2A0681979098A099B0997FDD6CF2B
:101FB0000E941B02D70193962C91620F711D811D07
:101FC000911DF701678F70A381A392A3412C5E013D
:101FD000F1E4AF0EB11C470126E8820E911CD70137
:101FE0005D968C91481608F0B9CFE42DF0E07F960D
:101FF000EE0FFF1FEE0FFF1FEE0DFF1DE081F0E063
:10200000CF01880F991FDC01AE0FBF1FAE0DBF1DA2
:10201000AA59BF4F2C9130E027963FAF2EAF27979C
:102020009E012F5F3F4F6901D90119011D92AA1529
:10203000BB05E1F7D70114966D907C901597E80FDA
:10204000F91FEE0DFF1DEB59FF4F408116966C9165
:1020500025961FAE1EAE2597F501118210828501CF
:102060009E012D5B3F4FC3010E94D909582E81115B
:1020700076CFD5014D915C9125966EAD7FAD2597BC
:1020800086019E012B5B3F4FC3010E94830B582E9C
:10209000811165CF27968EAD9FAD2797813491052D
:1020A00030F0E0E4F0E02796FFAFEEAF27972696FA
:1020B0002FAD2697F701B596CF01B6013C2D462FDF
:1020C0004C19421790F4DB015D91BD01DC014D918B
:1020D000CD015417A1F380E09C2D931B921748F477
:1020E000D6019D916D019193F7CF28968FAD2897DA
:1020F000F3CF811134CFD701ED91FC91008CF18D9C
:10210000E02D8101D4014C91B701C7010995D70198
:10211000ED91FC910288F389E02DD4018C9181111D
:102120005980652DC7010995009771F0DC01ED918B
:10213000FC910190F081E02D810126962FAD26972C
:10214000D4014C91B7010995439449CF0F931F9344
:10215000CF93DF93CDB7DEB7A4970FB6F894DEBF69
:102160000FBECDBF8C01FB01CE0103962EE1DC0139
:102170001D922A95E9F785E089838FEF8A83818113
:102180008D8380818E8382818F8383818887848100
:10219000898785818A8786818B871782F801848168
:1021A0009581E559FF4F4081D80116966C911CA28C
:1021B0001BA21AA219A28E010F5D1F4F9E012D5D59
:1021C0003F4F0E94D90981110BC069A17AA19E01DC
:1021D0002F5F3F4F40E250E08BA19CA10E94EF088F
:1021E000A4960FB6F894DEBF0FBECDBFDF91CF919E
:1021F0001F910F9108958B5891090C94A6100E947D
:10220000E31CCF92DF92EF920F931F93CF93DF9354
:10221000FC01E757FF4F408151814C34554009F094
:1022200096C0329740815181443CA5E05A0721F085
:102230004C3C594009F08BC0B801422FEC012230D0
:1022400008F45CC00115110509F458C0F80180813B
:10225000813009F06DC0CE0183579F4F41504D33FF
:1022600008F04CE350E06F5F7F4F0E94E81C9E0136
:1022700025573F4FD9011696CD90DD90EC90A901DE
:10228000425C5F4FFA0180819181A281C816D90614
:10229000EA06A1F1339680959095A0958C219D2119
:1022A000AE2180839183A283DA01CD92DD92EC92FC
:1022B000D90116969C919F7081E0973019F0923069
:1022C00008F080E02FEF290F233008F482602DEF13
:1022D000290F233008F484609550933008F4886007
:1022E000DE01A952BF4F9C91981741F09095982319
:1022F0009F702081207F922B90838C93CE018557F5
:102300009F4FFE01EA52FF4F2081222301F1BE01BF
:1023100061537F4FDC01ED91FC910190F081E02D44
:10232000DF91CF911F910F91EF90DF90CF900994A3
:10233000813169F4243058F0CE0183579F4F4350C8
:102340004D3308F04CE350E06D5F7F4F8ECFDF914F
:10235000CF911F910F91EF90DF90CF9008951F9232
:102360000F920FB60F9211242F933F938F939F9349
:10237000AF93BF938091BE019091BF01A091C00126
:10238000B091C1013091BD0123E0230F2D3758F5E5
:102390000196A11DB11D2093BD018093BE019093B4
:1023A000BF01A093C001B093C1018091C20190917F
:1023B000C301A091C401B091C5010196A11DB11D39
:1023C0008093C2019093C301A093C401B093C5014F
:1023D000BF91AF919F918F913F912F910F900FBE21
:1023E0000F901F90189526E8230F0296A11DB11D8E
:1023F000D2CF1F920F920FB60F9211248F939F93FB
:102400008091E1009091E100937F9093E10083FF40
:102410000FC01092E90091E09093EB001092EC0055
:1024200092E39093ED001092D30198E09093F00026
:1024300082FF22C093E09093E9009091F2009923EB
:1024400019F09AE39093E8009091B101992341F03B
:102450009091B10191509093B101911101C05D9A99
:102460009091D201992341F09091D2019150909393
:10247000D201911101C0289A84FF18C08091E20016
:102480008E7E81608093E2008091E1008F7E809358
:10249000E1008091B2018E7E80618093B2019F91B4
:1024A0008F910F900FBE0F901F90189580FFF7CF60
:1024B0008091E2008E7E80618093E2008091E10055
:1024C0008E7E8093E1008091B2018E7E8160E5CFA7
:1024D0001F920F920FB60F921124CF92DF92EF92BC
:1024E000FF920F931F932F933F934F935F936F939D
:1024F0007F938F939F93AF93BF93EF93FF93CF936C
:10250000DF93CDB7DEB76C97DEBFCDBF1092E90089
:102510008091E80083FF25C068E0CE0145960E94C7
:10252000DF0282EF8093E8008D8987FF39C09091A8
:10253000E80090FFFCCF982F907609F034C19E8977
:102540004F89588D2F89F88C911131C0803861F5F1
:102550008091B3018093F1001092F1008EEF80938F
:10256000E8006C960FB6F894DEBF0FBECDBFDF91CA
:10257000CF91FF91EF91BF91AF919F918F917F91FB
:102580006F915F914F913F912F911F910F91FF900C
:10259000EF90DF90CF900F900FBE0F901F90189587
:1025A0009EEF9093E800C7CF1092F100D5CF913005
:1025B00059F48111D3CF4130510581F68091B30197
:1025C0008D7F8093B301CACF933049F48111C6CF78
:1025D0004130510519F68091B3018260F2CF9530F8
:1025E00041F48091E80080FFFCCF20682093E30055
:1025F000B5CF963009F0A9C00B8D1C8D22E010924A
:10260000E9001092AF011092AE01F2122EC01092AA
:10261000AD011092AC010E94AE021F8299E0998335
:10262000FA8291E09E8390EA98879AEF99872091A9
:10263000AE013091AF01275F3F4F3C832B838D83E9
:102640001092E9001092AF011092AE011093AD010B
:102650000093AC0149E050E0BE016F5F7F4F80E026
:102660000E9488020E94AE0279CF1093AD010093C0
:10267000AC010E94B001DC0112960D911C91011574
:10268000110509F451C1D801ED91FC910480F58147
:10269000E02DBE016B5E7F4FC8010995009709F0E0
:1026A0003EC1F80100851185EACFF3E0FF120EC0AC
:1026B0008F89882309F440C0823061F440E860E1EA
:1026C00080E191E00E945502811148CF81E2809320
:1026D000EB0047CF813029F440E86BE084E091E0E3
:1026E000F1CF833099F70E94B001DC011296ED9092
:1026F000FC908E010F5F1F4F6801E114F10479F027
:10270000D701ED91FC910680F781E02DB801C7015A
:102710000995080F111DF701E084F184EECFD8016F
:102720001C92F60101900020E9F73197BF016C1966
:102730007D0940E0C601C6CF6EEE70E0FB0144911A
:1027400050E080E80E94880209CF973009F4BECF9C
:10275000983021F481E08093F10000CF993009F0A6
:10276000FDCE837009F0B2CFE7E1F1E081E031E026
:1027700096E32191222371F08093E9003093EB00DE
:10278000DF0111972C912093EC009093ED008F5F67
:10279000873079F78EE78093EA001092EA008F89FC
:1027A0008093D301DBCE8B8D9C8D1092E90010922B
:1027B000AF011092AE019093AD018093AC01898D71
:1027C000811192C08E899D89913A49F4813209F034
:1027D0007DCF47E050E064E071E080E0B3CF91321C
:1027E00009F074CF833269F48F89988DB0E0A0E04E
:1027F0008093000190930101A0930201B093030123
:10280000ADCE803269F48091E80082FFFCCF67E0B2
:1028100084E091E00E94DF028BEF8093E8009ECE7F
:10282000823209F09BCE8F8980930B01EEEFFFE798
:10283000859194918B3F9C4D51F1E0E0F8E08091BF
:10284000040190910501A0910601B0910701803B20
:102850009440A105B105F1F480910B0180FD1AC0EF
:10286000EE3F8AE0F80789F587E797E79183808351
:10287000809160008093B00188E19BE00FB6F894EE
:10288000A895809360000FBE9093600067CEEEEF36
:10289000FAE0D5CF808191818737974709F05ECEE6
:1028A000A895809160008861809360008091B0015C
:1028B00080936000EE3F2AE0F20789F08091FE0AE3
:1028C0009091FF0A9183808349CE808191818737DF
:1028D000980751F29093FF0A8093FE0AC5CF109299
:1028E000FF0A1092FE0A3ACE0E94B001DC01129655
:1028F0000D911C910115110509F4E8CED801ED9157
:10290000FC910190F081E02DBE016B5E7F4FC8010C
:102910000995811123CEF80100851185EBCF18169A
:1029200019060CF41BCED2CEF1E0FF12BECE62EF40
:1029300070E004CF1F920F920FB60F9211242F93C5
:102940003F934F935F936F937F938F939F93AF9337
:10295000BF93EF93FF9385ED91E00E948E03FF916B
:10296000EF91BF91AF919F918F917F916F915F9107
:102970004F913F912F910F900FBE0F901F90189580
:102980001F920F920FB60F9211242F938F939F9344
:10299000EF93FF93E091E501F091E6018081E091F2
:1029A000EB01F091EC0182FD1BC090818091EE0162
:1029B0008F5F8F732091EF01821741F0E091EE015C
:1029C000F0E0EB52FE4F958F8093EE01FF91EF9177
:1029D0009F918F912F910F900FBE0F901F90189580
:1029E0008081F4CFAF92BF92CF92DF92EF92FF92AD
:1029F0000F93CF93DF93FC01E701868D823018F0AF
:102A0000848D861385C0648F558D90E080E0E42E20
:102A1000F12CC22ED12CA02EB12C851770F583304D
:102A2000910559F1BC01660F771F660F771FDF0113
:102A3000A60FB71FA658BF4F3C91A32FA770AE1586
:102A40001F0409F06FC0A32FA695A695A695A770A1
:102A5000AC151D0409F066C0329536953695337075
:102A60003A151B0409F05EC0DF01A658BF4F7D0177
:102A7000E60EF71EE114F104E1F434E0539FC001C7
:102A80001124DF01A658BF4F7D01E80EF91E4770E3
:102A90002770220F220F220F802F8295880F880F18
:102AA000807C022F042B082BD7010C93858D8F5F20
:102AB000858F8B818370833059F53A8121E037FF10
:102AC00022E0468D642F70E0CB01880F991F860F9E
:102AD000971F8E0F9F1FBC016B597F4F3F70DB010B
:102AE0003C936F5F7F4F3C81DB013C9389599F4F43
:102AF00034E0DC013C93D701A20FB11D11964C9339
:102B00008E8193A1981708F483A3868D8F5F868F9B
:102B1000DF91CF910F91FF90EF90DF90CF90BF901A
:102B2000AF900895019679CFEF92FF920F9302979D
:102B30000E94F2140F91FF90EF900895CF93DF93CE
:102B40001092D8011092D70188EE93E0A0E0B0E097
:102B50008093D9019093DA01A093DB01B093DC015B
:102B600021E231E03093D6012093D5012DEC30E005
:102B70003093E2012093E1012CEC30E03093E4014A
:102B80002093E30128EC30E03093E6012093E50147
:102B900029EC30E03093E8012093E7012AEC30E0A3
:102BA0003093EA012093E9012EEC30E03093EC0100
:102BB0002093EB011092EE011092EF011092F001C0
:102BC0001092F101109275021092740280937602B5
:102BD00090937702A0937802B093790283E391E017
:102BE00090937302809372028FEF9FEF90937F0216
:102BF00080937E0283EA91E090939E0380939D03ED
:102C00001092A50381E08093A6031092A7038FE999
:102C100093E09093A4038093A30310929F0388E012
:102C20008093A0038CE38093A1031092A203EDE9AB
:102C3000F3E021E08FE993E01586268717869487D5
:102C40008387359633E0E83EF307B1F7109213041B
:102C500081E18093C2028DE993E09093C802809352
:102C6000C7028BE491E09093C4028093C3028DE687
:102C700091E09093C6028093C5021092E2021092F6
:102C8000E3021092E4021092E5021092E602109222
:102C9000E702109249031092CA021092CC021092DD
:102CA000CB021092CD021092CF021092CE0210925F
:102CB000D0021092D2021092D1021092D30210923E
:102CC000D5021092D4021092D6021092D80210921D
:102CD000D7021092D9021092DB021092DA021092FF
:102CE000DC021092DE021092DD0280913D038873B7
:102CF00080933D0310923E0310923F038091410365
:102D00008873809341031092420310924303809191
:102D1000450388738093450310924603109247033E
:102D2000A8E2B3E090E080E01C92382F28E0811107
:102D300020E011962C931197FC01EE0FFF1FEF017D
:102D4000C80FD91FC65DDC4F28812E7F2D7F2883B9
:102D500031115AC03FE0E80FF91FE65DFC4F330F19
:102D6000330F20812370232B208301961396873005
:102D70009105D1F681E08093E1021092E002109279
:102D8000DF02E8EEF2E0119283E0E832F807D9F7CB
:102D90002091C7023091C8022115310599F0F9013F
:102DA000EA5AFF4F90E080E041915191452B71F537
:102DB0008B96880F991F820F931F23EC32E0FC0142
:102DC0003183208385E491E090934F0380934E03F9
:102DD0008EE493E00E94F40783E791E09093C402AD
:102DE0008093C30287E991E09093C6028093C50265
:102DF0008DE991E090934F0380934E038EE493E02E
:102E0000DF91CF910C94F40731E0A5CF019680318A
:102E1000910551F6D7CFCF93DF93CDB7DEB7669745
:102E20000FB6F894DEBF0FBECDBF789484B5826034
:102E300084BD84B5816084BD85B5826085BD85B55E
:102E4000816085BD80916E00816080936E001092DC
:102E50008100809181008260809381008091810057
:102E600081608093810080918000816080938000E8
:102E700080919100826080939100809191008160A7
:102E80008093910080919000816080939000809168
:102E9000C10084608093C1008091C10082608093F2
:102EA000C1008091C10081608093C1008091C30006
:102EB00081608093C3008091C00082608093C000D5
:102EC0008091C20081608093C20080917A0084600A
:102ED00080937A0080917A00826080937A0080915A
:102EE0007A00816080937A0080917A008068809374
:102EF0007A001092D3011092B3011092B201809126
:102F0000D70081608093D70080EA8093D80089B58C
:102F1000806189BD89B5826089BD09B400FEFDCF9D
:102F200061E070E080E090E00E94E9018091D800CB
:102F30008F7C80618093D8008091E000807F8093B7
:102F4000E0008091E1008E7E8093E1008DE080932F
:102F5000E200559A209AE091E501F091E60182E0C5
:102F60008083E091E101F091E2011082E091E301C0
:102F7000F091E4018FEC80831092ED01E091E90182
:102F8000F091EA0186E08083E091E701F091E801A9
:102F9000808180618083E091E701F091E801808188
:102FA00088608083E091E701F091E801808180688A
:102FB0008083E091E701F091E80180818F7D80833B
:102FC000269A0E9434081FB7F8948091B4018111A9
:102FD0005AC04BE951E0FA0194912AEB31E0F90132
:102FE0008491E92FF0E0EE0FFF1FE458FE4FA5910A
:102FF000B4919C91892309F037C0E2E3F1E0949108
:10300000F9012491FA018491882309F42DC09923B0
:10301000E9F091509F30D0F4E92FF0E0EE5EF74EEA
:103020000C94DD1CAE18B2182118A618AA18261880
:1030300026182618B518BB18BF18C318C9182618A3
:10304000CD18909180009F7790938000E82FF0E05A
:10305000EE0FFF1FE259FE4FA591B4918FB7F89480
:103060009C91292B2C938FBF81E10E9456018CB536
:1030700080618CBD8CB580648CBD8FE00E94560150
:1030800080E10E9456018091B4018F5F8093B4016A
:103090001FBF209A289A259868E188E80E94B30803
:1030A00060E288E70E94B30860E088E70E94B30806
:1030B00010E000E088E60E94DB080F5F1F4F80FFF2
:1030C00072C061EC88ED0E94B30860E680ED0E945A
:1030D000B30864E088EE0E94B30888EE0E94DB0823
:1030E00082FFFBCF0E94A10A60E288EC0E94B30835
:1030F00061E080E80E94B30864E571E082E792E055
:103100000E94EC0225EF222E312C412C512C83B150
:10311000182F107285FD0CC088EC0E94DB0885FF1B
:1031200003C00E94A10A10E2612F88EC0E94B3083C
:103130008091D401813009F496C008F498C082309F
:10314000E9F1833009F49BC010E04FC090918000FA
:103150009F7D7ACF90918000977F76CF94B59F77AF
:1031600094BD74CF94B59F7DFBCF909190009F77D5
:10317000909390006BCF909190009F7DF9CF9091AC
:103180009000977FF5CF9091C0009F779093C000FB
:103190005DCF9091C0009F7DF9CF9091C200977F45
:1031A0009093C20053CF0F3F100709F083CF60E424
:1031B00071E085ED91E00E94EC02FFCF10E080917C
:1031C000C202807F803189F40E941B0268537F4FC6
:1031D0008F4F9F4F6093B5017093B6018093B701F5
:1031E0009093B80180E28093C20293EFE92E93E0BE
:1031F000F92E6701D6018D919D916D01009739F0EF
:10320000DC01ED91FC910680F781E02D0995B3E199
:10321000CB16B4E0DB0671F78091C202803409F46A
:103220004FC278F5803209F435C2803309F442C2C6
:10323000813109F044C010921304F70181919191FA
:103240007F01009739F0DC01ED91FC910480F5815C
:10325000E02D0995B3E1EB16B4E0FB0671F782E1CE
:103260008093C2022CC083E18093C2026DCF809113
:10327000C202807F803109F467CF81E1F5CF11E090
:103280009ECF813509F42BC2803809F43BC28035CA
:10329000B1F488EC0E94DB0886FF11C081E58093C1
:1032A000C2020E941B026C5E7F4F8F4F9F4F609344
:1032B000B5017093B6018093B7019093B8018091E6
:1032C000E702882309F4AFC180914C0390914D032C
:1032D0008C34954009F0A7C180914A0390914B032B
:1032E000843C25E0920721F08C3C994009F09BC179
:1032F00090905103C92CD12C86010058110980905F
:103300005003882D90E05C01B0E8AB1AB108E0E80A
:103310007501E81528F020E830E07901E81AF90A8B
:10332000E016F106D4F4292D30E050E040E02659B3
:10333000310941095109A0E3B0E00E94A11C29E62E
:1033400030E040E050E00E94821C2F5F3F4F4F4F23
:103350005F4F3093BC012093BB01C6018F57910989
:10336000E816F906D4F0292D30E050E040E02A5567
:10337000310941095109A1E3B0E00E94A11C26EAEC
:103380003FEF4FEF5FEF0E94821C2E5C3F4F4F4F8D
:103390005F4F3093BC012093BB01F0E8F91520F09A
:1033A00000E810E00C191D090E151F05D4F4282D96
:1033B00030E050E040E02A55310941095109A1E3CC
:1033C000B0E00E94A11C26EA3FEF4FEF5FEF0E94A2
:1033D000821C2A563F4F4F4F5F4F3093BC012093C2
:1033E000BB010A151B05D4F4282D30E050E040E065
:1033F0002659310941095109A1E3B0E00E94A11CFD
:1034000029E630E040E050E00E94821C2C593F4FFA
:103410004F4F5F4F3093BC012093BB0186EA880D6C
:103420008D3340F486EA890D8D3320F41092BC016F
:103430001092BB018CE090E00E941B01882331F0C8
:1034400081E991E09093BC018093BB018DE090E015
:103450000E941B01882331F080E991E09093BC0128
:103460008093BB018FE090E00E941B01882331F024
:1034700086E991E09093BC018093BB018EE090E0DF
:103480000E941B01882331F0A2E9B1E0B093BC0196
:10349000A093BB0181E090E00E941B01882331F0E2
:1034A000E4E9F1E0F093BC01E093BB0182E090E03D
:1034B0000E941B01882331F083E991E09093BC01C5
:1034C0008093BB0183E090E00E941B01882331F0D0
:1034D000A5E9B1E0B093BC01A093BB0190E080E00E
:1034E0000E941B01882331F0E7E9F1E0F093BC0171
:1034F000E093BB018AE090E00E941B01882369F001
:1035000080910E0190910F0101968230910509F48E
:10351000EFC190930F0180930E018BE090E00E9429
:103520001B01882369F080910C0190910D01019697
:103530008230910509F4E1C190930D0180930C0153
:1035400085E090E00E941B01882331F089E991E039
:103550009093BC018093BB0184E090E00E941B012A
:10356000882331F0A8E9B1E0B093BC01A093BB017E
:1035700020915703222349F180910E0190910F0170
:10358000019719F530E050E040E02A503109410937
:103590005109A3E6B0E00E94A11CA20191010E9482
:1035A000821CBA01A90148535F4F6F4F7F4F509360
:1035B000BA014093B901CA01885C9109843691052A
:1035C00020F45093BC014093BB0120915803222367
:1035D00051F180910C0190910D01019721F530E09E
:1035E00050E040E02A50310941095109A3E6B0E01A
:1035F0000E94A11CA20191010E94821CBA01A90192
:10360000445D5E4F6F4F7F4F4C32B1E05B075CF023
:103610008091B9019091BA018039914024F450937E
:10362000BC014093BB01C090BB01D090BC010D2CEC
:10363000000CEE08FF084AE0C701B601F7FE0DC016
:103640006DE285ED91E00E94AF0366277727CB01FD
:103650006C197D098E099F094AE00E94D10A42E057
:1036600050E069EA71E085ED91E00E9410036AE0A4
:1036700070E080E090E00E94E90180E090E0892B1A
:1036800009F445CD0E947A03882309F440CD0E94B5
:1036900000003DCD0E941B020091B5011091B601C2
:1036A0002091B7013091B801601B710B820B930B15
:1036B00097FD05CE61E088EE0E94B30880E4D0CD8E
:1036C00088EE0E94DB0880FDFACD88ED0E94DB08C1
:1036D000682F686088ED0E94B30880E5C1CD0E9424
:1036E0001B028090B5019090B601A090B701B090F8
:1036F000B801681979098A099B0997FDE0CD80E82E
:103700008093C2021B8A88E08C8B8CE38D8BC090E7
:10371000A303D090A403E3E1F0E0EC0FFD1FF093CE
:10372000A403E093A3031093A7039E012F5F3F4FD1
:1037300042E150E060E08DE993E00E94300D082FF7
:10374000D092A403C092A303811151C0A984BA846A
:103750008B849C846D80FE81FE8B83EFC82E83E07A
:10376000D82E712CD6018D919C91009709F041C003
:103770007394B2E0CB0ED11CE0E17E12F3CFF701DF
:1037800080819181009709F076C00F5FF2E0EF0E23
:10379000F11C0031A1F78091A3039091A403892B20
:1037A00009F459C01093A70320E040E060E08DE9E0
:1037B00093E00E948607F82E882309F44CC0682FF6
:1037C0008DE993E00E94DB07009709F444C0FC01F7
:1037D00014836F2D8DE993E00E94000D082F88233C
:1037E00009F484C06F2D8DE993E00E946407802F57
:1037F0002FC0DC01ED91FC910084F185E02D09954D
:103800008111B6CFF60180819181DC01ED91FC91AF
:103810000088F189E02D6E890995882309F4A8CFE5
:10382000F60180819181DC01ED91FC910484F585A4
:10383000E02DA401B5010995882379F0612F872D2A
:103840000E941F0B813D09F493CF882309F44EC0D9
:10385000823D09F434CD80EA03CDF6018081918167
:10386000DC01ED91FC910684F785E02D662D09952C
:103870008111E4CF7DCFDC01ED91FC910084F185D5
:10388000E02D0995811181CFF70180819181DC01C3
:10389000ED91FC910088F189E02D6E8909958111E7
:1038A00009C0612F802F0E941F0B982F977F913D99
:1038B00061F66BCFF70180819181DC01ED91FC9184
:1038C0000484F585E02DA401B501099581115DCF32
:1038D000F70180819181DC01ED91FC910684F785EF
:1038E000E02D662D09958823E1F24FCF80E9B8CC11
:1038F00010920F0110920E0110CE10920D01109235
:103900000C011ECE052E97FB1EF400940E94991CFC
:1039100057FD07D00E94AC1C07FC03D04EF40C945A
:10392000991C50954095309521953F4F4F4F5F4FD3
:10393000089590958095709561957F4F8F4F9F4F1B
:1039400008950E94CE1CA59F900DB49F900DA49F3A
:10395000800D911D11240895A1E21A2EAA1BBB1BF4
:10396000FD010DC0AA1FBB1FEE1FFF1FA217B3074B
:10397000E407F50720F0A21BB30BE40BF50B661F61
:10398000771F881F991F1A9469F760957095809525
:1039900090959B01AC01BD01CF010895A29FB0019C
:1039A000B39FC001A39F700D811D1124911DB29F73
:1039B000700D811D1124911D0895EE0FFF1F0590BC
:1039C000F491E02D099481E090E0F8940C94F81CB7
:1039D000FB01DC0102C001900D9241505040D8F72C
:1039E0000895DC0101C06D9341505040E0F7089507
:0439F000F894FFCF79
:1039F400FFFFFFFF00E100000000000001000100E4
:103A0400000000005C0500C180810000000000008F
:103A140000AF0310033D03FB036E034C036003007C
:103A2400000000A0041B04C104B6040705C504E398
:103A34000400000000FF1000000000540D88089DE1
:103A4400068B0F80088708F20785088308B606D41A
:103A540006F606F5067D08F214FEFF000094150034
:103A6400000000540D88089D068B0F8008870836D7
:103A74000885088308B606D406490801117D08F2B2
:103A840014A610FEFF0000941575FF0000FB100043
:0C3A9400000000DB07860764070D0A0035
:00000001FF
